{
  "transactions": [
    {
      "hash": "0x6ac1f99bbc10baff5d0109210fdc749d1278736dc8f64289688d809b2dbfa87f",
      "transactionType": "CALL",
      "contractName": null,
      "contractAddress": "0xcc777c07d5eccffeb8c02e62805bd120ce4c7c6e",
      "function": "approve(address,uint256)",
      "arguments": [
        "0x9A8ca723F5dcCb7926D00B71deC55c2fEa1F50f7",
        "115792089237316195423570985008687907853269984665640564039457584007913129639935"
      ],
      "transaction": {
        "from": "0xffd9e66c997391b01e5ca3f36e13ab3e786a8c42",
        "to": "0xcc777c07d5eccffeb8c02e62805bd120ce4c7c6e",
        "gas": "0xa256",
        "value": "0x0",
        "input": "0x095ea7b30000000000000000000000009a8ca723f5dccb7926d00b71dec55c2fea1f50f7ffffffffffffffffffffffffffffffffffffffffffffffffffffffffffffffff",
        "nonce": "0x134",
        "chainId": "0x66eee"
      },
      "additionalContracts": [],
      "isFixedGasLimit": false
    },
    {
      "hash": "0xec8f60825d0b49426b5b7a66b15c8ed6c800639f3af98957ae5fa7ac7995989e",
      "transactionType": "CALL",
      "contractName": null,
      "contractAddress": "0xfbd51f6d6005f767af48bd6d52efd53fa419afb1",
      "function": "approve(address,uint256)",
      "arguments": [
        "0x9A8ca723F5dcCb7926D00B71deC55c2fEa1F50f7",
        "115792089237316195423570985008687907853269984665640564039457584007913129639935"
      ],
      "transaction": {
        "from": "0xffd9e66c997391b01e5ca3f36e13ab3e786a8c42",
        "to": "0xfbd51f6d6005f767af48bd6d52efd53fa419afb1",
        "gas": "0xa256",
        "value": "0x0",
        "input": "0x095ea7b30000000000000000000000009a8ca723f5dccb7926d00b71dec55c2fea1f50f7ffffffffffffffffffffffffffffffffffffffffffffffffffffffffffffffff",
        "nonce": "0x135",
        "chainId": "0x66eee"
      },
      "additionalContracts": [],
      "isFixedGasLimit": false
    },
    {
      "hash": "0x47d999ded4bdfd4ff18d32521a00bd4087c6064da5cf0144701f37acf777b485",
      "transactionType": "CALL",
      "contractName": null,
      "contractAddress": "0x9a8ca723f5dccb7926d00b71dec55c2fea1f50f7",
      "function": "modifyLiquidity((address,address,uint24,int24,address),(int24,int24,int256,bytes32),bytes)",
      "arguments": [
        "(0xCc777c07d5ecCfFEB8C02E62805bd120CE4C7c6E, 0xFbd51f6D6005f767AF48Bd6D52eFD53Fa419aFB1, 3000, 60, 0x42752F8714EC5D3E2f6462aB84074067b25B5500)",
        "(-600, 600, 10000000000000000000000, 0x0000000000000000000000000000000000000000000000000000000000000000)",
        "0x"
      ],
      "transaction": {
        "from": "0xffd9e66c997391b01e5ca3f36e13ab3e786a8c42",
        "to": "0x9a8ca723f5dccb7926d00b71dec55c2fea1f50f7",
        "gas": "0x58dd0",
        "value": "0x0",
        "input": "0x5a6bcfda000000000000000000000000cc777c07d5eccffeb8c02e62805bd120ce4c7c6e000000000000000000000000fbd51f6d6005f767af48bd6d52efd53fa419afb10000000000000000000000000000000000000000000000000000000000000bb8000000000000000000000000000000000000000000000000000000000000003c00000000000000000000000042752f8714ec5d3e2f6462ab84074067b25b5500fffffffffffffffffffffffffffffffffffffffffffffffffffffffffffffda8000000000000000000000000000000000000000000000000000000000000025800000000000000000000000000000000000000000000021e19e0c9bab2400000000000000000000000000000000000000000000000000000000000000000000000000000000000000000000000000000000000000000000000000000000001400000000000000000000000000000000000000000000000000000000000000000",
        "nonce": "0x136",
        "chainId": "0x66eee"
      },
      "additionalContracts": [],
      "isFixedGasLimit": false
    }
  ],
  "receipts": [
    {
      "status": "0x1",
      "cumulativeGasUsed": "0x7775",
      "logs": [
        {
          "address": "0xcc777c07d5eccffeb8c02e62805bd120ce4c7c6e",
          "topics": [
            "0x8c5be1e5ebec7d5bd14f71427d1e84f3dd0314c0f7b2291e5b200ac8c7c3b925",
            "0x000000000000000000000000ffd9e66c997391b01e5ca3f36e13ab3e786a8c42",
            "0x0000000000000000000000009a8ca723f5dccb7926d00b71dec55c2fea1f50f7"
          ],
          "data": "0xffffffffffffffffffffffffffffffffffffffffffffffffffffffffffffffff",
          "blockHash": "0xdf23fd130956f22243ecac623925f1ea83119c929e32c70b7361ecabe098680c",
          "blockNumber": "0xe56a800",
          "blockTimestamp": "0x6987325d",
          "transactionHash": "0x6ac1f99bbc10baff5d0109210fdc749d1278736dc8f64289688d809b2dbfa87f",
          "transactionIndex": "0x1",
          "logIndex": "0x0",
          "removed": false
        }
      ],
      "logsBloom": "0x00000000400000000000000000000000000000000000000000000000000000000000000000000000000000000000000000000000000000000000000000200000000000000000000000000010000000000000000000000002000000000000000000000000000000000000000000000000000000000000000000000000000000000010000000000000000000000000000000000000000000000000400000000000020000000000000000000008000000000000000000000000000080000000000000000000000000000000000000000000000000000000000000000000000000000010000000000000000000000000000000000000000000000000010000800000",
      "type": "0x2",
      "transactionHash": "0x6ac1f99bbc10baff5d0109210fdc749d1278736dc8f64289688d809b2dbfa87f",
      "transactionIndex": "0x1",
      "blockHash": "0xdf23fd130956f22243ecac623925f1ea83119c929e32c70b7361ecabe098680c",
      "blockNumber": "0xe56a800",
      "gasUsed": "0x7775",
      "effectiveGasPrice": "0x1312d00",
      "from": "0xffd9e66c997391b01e5ca3f36e13ab3e786a8c42",
      "to": "0xcc777c07d5eccffeb8c02e62805bd120ce4c7c6e",
      "contractAddress": null,
      "gasUsedForL1": "0x1088",
      "l1BlockNumber": "0x9bccdd",
      "timeboosted": false
    },
    {
      "status": "0x1",
      "cumulativeGasUsed": "0x7775",
      "logs": [
        {
          "address": "0xfbd51f6d6005f767af48bd6d52efd53fa419afb1",
          "topics": [
            "0x8c5be1e5ebec7d5bd14f71427d1e84f3dd0314c0f7b2291e5b200ac8c7c3b925",
            "0x000000000000000000000000ffd9e66c997391b01e5ca3f36e13ab3e786a8c42",
            "0x0000000000000000000000009a8ca723f5dccb7926d00b71dec55c2fea1f50f7"
          ],
          "data": "0xffffffffffffffffffffffffffffffffffffffffffffffffffffffffffffffff",
          "blockHash": "0x276655cc4986a23c7167f15be1dd441423a769476b341369dc5e9d788e80079b",
          "blockNumber": "0xe56a808",
          "blockTimestamp": "0x6987325f",
          "transactionHash": "0xec8f60825d0b49426b5b7a66b15c8ed6c800639f3af98957ae5fa7ac7995989e",
          "transactionIndex": "0x1",
          "logIndex": "0x0",
          "removed": false
        }
      ],
      "logsBloom": "0x00000000400000000000000000000000000000000000000000000000000000000000000000000000000000000000000000000000000000000000000000200000000000000000000000000000000000000000000008000000000000000000000000000000000000000000000000000000000000000000000000000000000000000014000000000000000000000000000000000000000000002000400000000000020000000000000000000008000000000000000000000000000000000000000000000000000000000000000000000000000000000000000000000000000000000010000000000000000000000000000000000000000000000000010000800000",
      "type": "0x2",
      "transactionHash": "0xec8f60825d0b49426b5b7a66b15c8ed6c800639f3af98957ae5fa7ac7995989e",
      "transactionIndex": "0x1",
      "blockHash": "0x276655cc4986a23c7167f15be1dd441423a769476b341369dc5e9d788e80079b",
      "blockNumber": "0xe56a808",
      "gasUsed": "0x7775",
      "effectiveGasPrice": "0x1312d00",
      "from": "0xffd9e66c997391b01e5ca3f36e13ab3e786a8c42",
      "to": "0xfbd51f6d6005f767af48bd6d52efd53fa419afb1",
      "contractAddress": null,
      "gasUsedForL1": "0x1088",
      "l1BlockNumber": "0x9bccde",
      "timeboosted": false
    },
    {
      "status": "0x1",
      "cumulativeGasUsed": "0x5ff61",
      "logs": [
        {
          "address": "0xfb3e0c6f74eb1a21cc1da29aec80d2dfe6c9a317",
          "topics": [
            "0xf208f4912782fd25c7f114ca3723a2d5dd6f3bcc3ac8db5af63baa85f711d5ec",
            "0xb18d5a6c6616d64282410e46d6647de679ebca93d721f4fdf86e8f3c2b9f5d4b",
            "0x0000000000000000000000009a8ca723f5dccb7926d00b71dec55c2fea1f50f7"
          ],
          "data": "0xfffffffffffffffffffffffffffffffffffffffffffffffffffffffffffffda8000000000000000000000000000000000000000000000000000000000000025800000000000000000000000000000000000000000000021e19e0c9bab24000000000000000000000000000000000000000000000000000000000000000000000",
          "blockHash": "0x18af269ce1252e62357d4803dcb730ebce1e3609fcff58b339ff1ddbb37e3d5f",
          "blockNumber": "0xe56a80f",
          "blockTimestamp": "0x69873261",
          "transactionHash": "0x47d999ded4bdfd4ff18d32521a00bd4087c6064da5cf0144701f37acf777b485",
          "transactionIndex": "0x3",
          "logIndex": "0x2",
          "removed": false
        },
        {
          "address": "0xcc777c07d5eccffeb8c02e62805bd120ce4c7c6e",
          "topics": [
            "0xddf252ad1be2c89b69c2b068fc378daa952ba7f163c4a11628f55a4df523b3ef",
            "0x000000000000000000000000ffd9e66c997391b01e5ca3f36e13ab3e786a8c42",
            "0x000000000000000000000000fb3e0c6f74eb1a21cc1da29aec80d2dfe6c9a317"
          ],
          "data": "0x000000000000000000000000000000000000000000000010054ddc28fe418aa9",
          "blockHash": "0x18af269ce1252e62357d4803dcb730ebce1e3609fcff58b339ff1ddbb37e3d5f",
          "blockNumber": "0xe56a80f",
          "blockTimestamp": "0x69873261",
          "transactionHash": "0x47d999ded4bdfd4ff18d32521a00bd4087c6064da5cf0144701f37acf777b485",
          "transactionIndex": "0x3",
          "logIndex": "0x3",
          "removed": false
        },
        {
          "address": "0xfbd51f6d6005f767af48bd6d52efd53fa419afb1",
          "topics": [
            "0xddf252ad1be2c89b69c2b068fc378daa952ba7f163c4a11628f55a4df523b3ef",
            "0x000000000000000000000000ffd9e66c997391b01e5ca3f36e13ab3e786a8c42",
            "0x000000000000000000000000fb3e0c6f74eb1a21cc1da29aec80d2dfe6c9a317"
          ],
          "data": "0x000000000000000000000000000000000000000000000010054ddc28fe418aa9",
          "blockHash": "0x18af269ce1252e62357d4803dcb730ebce1e3609fcff58b339ff1ddbb37e3d5f",
          "blockNumber": "0xe56a80f",
          "blockTimestamp": "0x69873261",
          "transactionHash": "0x47d999ded4bdfd4ff18d32521a00bd4087c6064da5cf0144701f37acf777b485",
          "transactionIndex": "0x3",
          "logIndex": "0x4",
          "removed": false
        }
      ],
      "logsBloom": "0x00000040400000000000000000000008000000000020000000000000000000000000000000000000000000000000000000000000000000000000000000000040000000000000000000000018000000000000000008000002000000000000000000000000000400000000000000000000000000000000000000000010000000000014000001000000000000000000000000000000000000002000400000000000000004000000000000000008000000000000000000000000000080000000000000000002000000000000000000000000000000000000000000000040000000000000000000000000010000000000000004000000000000200000010000800004",
      "type": "0x2",
      "transactionHash": "0x47d999ded4bdfd4ff18d32521a00bd4087c6064da5cf0144701f37acf777b485",
      "transactionIndex": "0x3",
      "blockHash": "0x18af269ce1252e62357d4803dcb730ebce1e3609fcff58b339ff1ddbb37e3d5f",
      "blockNumber": "0xe56a80f",
      "gasUsed": "0x42669",
      "effectiveGasPrice": "0x1314470",
      "from": "0xffd9e66c997391b01e5ca3f36e13ab3e786a8c42",
      "to": "0x9a8ca723f5dccb7926d00b71dec55c2fea1f50f7",
      "contractAddress": null,
      "gasUsedForL1": "0x1eb5",
      "l1BlockNumber": "0x9bccde",
      "timeboosted": false
    }
  ],
  "libraries": [],
  "pending": [],
  "returns": {},
  "timestamp": 1770467939436,
  "chain": 421614,
  "commit": null
}