{
  "transactions": [
    {
      "hash": "0xbb5da3f3262c67823b9a97a1264de032d298d179c60f7a159bd3a18bb4599b63",
      "transactionType": "CALL",
      "contractName": null,
      "contractAddress": "0xcc777c07d5eccffeb8c02e62805bd120ce4c7c6e",
      "function": "approve(address,uint256)",
      "arguments": [
        "0x9A8ca723F5dcCb7926D00B71deC55c2fEa1F50f7",
        "115792089237316195423570985008687907853269984665640564039457584007913129639935"
      ],
      "transaction": {
        "from": "0xffd9e66c997391b01e5ca3f36e13ab3e786a8c42",
        "to": "0xcc777c07d5eccffeb8c02e62805bd120ce4c7c6e",
        "gas": "0xa256",
        "value": "0x0",
        "input": "0x095ea7b30000000000000000000000009a8ca723f5dccb7926d00b71dec55c2fea1f50f7ffffffffffffffffffffffffffffffffffffffffffffffffffffffffffffffff",
        "nonce": "0x138",
        "chainId": "0x66eee"
      },
      "additionalContracts": [],
      "isFixedGasLimit": false
    },
    {
      "hash": "0x3d7a57a086ccdf5e3420c5c1dee6438aec508fa17927cc2213adeadcf357c6fd",
      "transactionType": "CALL",
      "contractName": null,
      "contractAddress": "0xfbd51f6d6005f767af48bd6d52efd53fa419afb1",
      "function": "approve(address,uint256)",
      "arguments": [
        "0x9A8ca723F5dcCb7926D00B71deC55c2fEa1F50f7",
        "115792089237316195423570985008687907853269984665640564039457584007913129639935"
      ],
      "transaction": {
        "from": "0xffd9e66c997391b01e5ca3f36e13ab3e786a8c42",
        "to": "0xfbd51f6d6005f767af48bd6d52efd53fa419afb1",
        "gas": "0xa256",
        "value": "0x0",
        "input": "0x095ea7b30000000000000000000000009a8ca723f5dccb7926d00b71dec55c2fea1f50f7ffffffffffffffffffffffffffffffffffffffffffffffffffffffffffffffff",
        "nonce": "0x139",
        "chainId": "0x66eee"
      },
      "additionalContracts": [],
      "isFixedGasLimit": false
    },
    {
      "hash": "0xfd44c00cf00449d330021bd3f78810525d7ebdbbc3e4cb989bda05b734b017ba",
      "transactionType": "CALL",
      "contractName": null,
      "contractAddress": "0x9a8ca723f5dccb7926d00b71dec55c2fea1f50f7",
      "function": "modifyLiquidity((address,address,uint24,int24,address),(int24,int24,int256,bytes32),bytes)",
      "arguments": [
        "(0xCc777c07d5ecCfFEB8C02E62805bd120CE4C7c6E, 0xFbd51f6D6005f767AF48Bd6D52eFD53Fa419aFB1, 3000, 60, 0x42752F8714EC5D3E2f6462aB84074067b25B5500)",
        "(-600, 600, 10000000000000000000000, 0x0000000000000000000000000000000000000000000000000000000000000000)",
        "0x"
      ],
      "transaction": {
        "from": "0xffd9e66c997391b01e5ca3f36e13ab3e786a8c42",
        "to": "0x9a8ca723f5dccb7926d00b71dec55c2fea1f50f7",
        "gas": "0x33547",
        "value": "0x0",
        "input": "0x5a6bcfda000000000000000000000000cc777c07d5eccffeb8c02e62805bd120ce4c7c6e000000000000000000000000fbd51f6d6005f767af48bd6d52efd53fa419afb10000000000000000000000000000000000000000000000000000000000000bb8000000000000000000000000000000000000000000000000000000000000003c00000000000000000000000042752f8714ec5d3e2f6462ab84074067b25b5500fffffffffffffffffffffffffffffffffffffffffffffffffffffffffffffda8000000000000000000000000000000000000000000000000000000000000025800000000000000000000000000000000000000000000021e19e0c9bab2400000000000000000000000000000000000000000000000000000000000000000000000000000000000000000000000000000000000000000000000000000000001400000000000000000000000000000000000000000000000000000000000000000",
        "nonce": "0x13a",
        "chainId": "0x66eee"
      },
      "additionalContracts": [],
      "isFixedGasLimit": false
    }
  ],
  "receipts": [
    {
      "status": "0x1",
      "cumulativeGasUsed": "0x7775",
      "logs": [
        {
          "address": "0xcc777c07d5eccffeb8c02e62805bd120ce4c7c6e",
          "topics": [
            "0x8c5be1e5ebec7d5bd14f71427d1e84f3dd0314c0f7b2291e5b200ac8c7c3b925",
            "0x000000000000000000000000ffd9e66c997391b01e5ca3f36e13ab3e786a8c42",
            "0x0000000000000000000000009a8ca723f5dccb7926d00b71dec55c2fea1f50f7"
          ],
          "data": "0xffffffffffffffffffffffffffffffffffffffffffffffffffffffffffffffff",
          "blockHash": "0xbb9885c8492c232e4a34145f45d04b484b05535b8c14fb5c1e1b26c312096151",
          "blockNumber": "0xe56a8ff",
          "blockTimestamp": "0x6987329f",
          "transactionHash": "0xbb5da3f3262c67823b9a97a1264de032d298d179c60f7a159bd3a18bb4599b63",
          "transactionIndex": "0x1",
          "logIndex": "0x0",
          "removed": false
        }
      ],
      "logsBloom": "0x00000000400000000000000000000000000000000000000000000000000000000000000000000000000000000000000000000000000000000000000000200000000000000000000000000010000000000000000000000002000000000000000000000000000000000000000000000000000000000000000000000000000000000010000000000000000000000000000000000000000000000000400000000000020000000000000000000008000000000000000000000000000080000000000000000000000000000000000000000000000000000000000000000000000000000010000000000000000000000000000000000000000000000000010000800000",
      "type": "0x2",
      "transactionHash": "0xbb5da3f3262c67823b9a97a1264de032d298d179c60f7a159bd3a18bb4599b63",
      "transactionIndex": "0x1",
      "blockHash": "0xbb9885c8492c232e4a34145f45d04b484b05535b8c14fb5c1e1b26c312096151",
      "blockNumber": "0xe56a8ff",
      "gasUsed": "0x7775",
      "effectiveGasPrice": "0x1312d00",
      "from": "0xffd9e66c997391b01e5ca3f36e13ab3e786a8c42",
      "to": "0xcc777c07d5eccffeb8c02e62805bd120ce4c7c6e",
      "contractAddress": null,
      "gasUsedForL1": "0x1088",
      "l1BlockNumber": "0x9bcce3",
      "timeboosted": false
    },
    {
      "status": "0x1",
      "cumulativeGasUsed": "0x1ba1a",
      "logs": [
        {
          "address": "0xfbd51f6d6005f767af48bd6d52efd53fa419afb1",
          "topics": [
            "0x8c5be1e5ebec7d5bd14f71427d1e84f3dd0314c0f7b2291e5b200ac8c7c3b925",
            "0x000000000000000000000000ffd9e66c997391b01e5ca3f36e13ab3e786a8c42",
            "0x0000000000000000000000009a8ca723f5dccb7926d00b71dec55c2fea1f50f7"
          ],
          "data": "0xffffffffffffffffffffffffffffffffffffffffffffffffffffffffffffffff",
          "blockHash": "0xbd595b6d5b668f3a60be18fcdfd136b9e85f0bd57e5baff2c053b440e119555a",
          "blockNumber": "0xe56a906",
          "blockTimestamp": "0x698732a1",
          "transactionHash": "0x3d7a57a086ccdf5e3420c5c1dee6438aec508fa17927cc2213adeadcf357c6fd",
          "transactionIndex": "0x2",
          "logIndex": "0x1",
          "removed": false
        }
      ],
      "logsBloom": "0x00000000400000000000000000000000000000000000000000000000000000000000000000000000000000000000000000000000000000000000000000200000000000000000000000000000000000000000000008000000000000000000000000000000000000000000000000000000000000000000000000000000000000000014000000000000000000000000000000000000000000002000400000000000020000000000000000000008000000000000000000000000000000000000000000000000000000000000000000000000000000000000000000000000000000000010000000000000000000000000000000000000000000000000010000800000",
      "type": "0x2",
      "transactionHash": "0x3d7a57a086ccdf5e3420c5c1dee6438aec508fa17927cc2213adeadcf357c6fd",
      "transactionIndex": "0x2",
      "blockHash": "0xbd595b6d5b668f3a60be18fcdfd136b9e85f0bd57e5baff2c053b440e119555a",
      "blockNumber": "0xe56a906",
      "gasUsed": "0x7771",
      "effectiveGasPrice": "0x1317b20",
      "from": "0xffd9e66c997391b01e5ca3f36e13ab3e786a8c42",
      "to": "0xfbd51f6d6005f767af48bd6d52efd53fa419afb1",
      "contractAddress": null,
      "gasUsedForL1": "0x1084",
      "l1BlockNumber": "0x9bcce3",
      "timeboosted": false
    },
    {
      "status": "0x1",
      "cumulativeGasUsed": "0x408c4",
      "logs": [
        {
          "address": "0xfb3e0c6f74eb1a21cc1da29aec80d2dfe6c9a317",
          "topics": [
            "0xf208f4912782fd25c7f114ca3723a2d5dd6f3bcc3ac8db5af63baa85f711d5ec",
            "0xb18d5a6c6616d64282410e46d6647de679ebca93d721f4fdf86e8f3c2b9f5d4b",
            "0x0000000000000000000000009a8ca723f5dccb7926d00b71dec55c2fea1f50f7"
          ],
          "data": "0xfffffffffffffffffffffffffffffffffffffffffffffffffffffffffffffda8000000000000000000000000000000000000000000000000000000000000025800000000000000000000000000000000000000000000021e19e0c9bab24000000000000000000000000000000000000000000000000000000000000000000000",
          "blockHash": "0x357dc192f2e63c3bc432b228320adf15dea7f5a04c3cbf29c9938d89ef044cd9",
          "blockNumber": "0xe56a90c",
          "blockTimestamp": "0x698732a2",
          "transactionHash": "0xfd44c00cf00449d330021bd3f78810525d7ebdbbc3e4cb989bda05b734b017ba",
          "transactionIndex": "0x2",
          "logIndex": "0x2",
          "removed": false
        },
        {
          "address": "0xcc777c07d5eccffeb8c02e62805bd120ce4c7c6e",
          "topics": [
            "0xddf252ad1be2c89b69c2b068fc378daa952ba7f163c4a11628f55a4df523b3ef",
            "0x000000000000000000000000ffd9e66c997391b01e5ca3f36e13ab3e786a8c42",
            "0x000000000000000000000000fb3e0c6f74eb1a21cc1da29aec80d2dfe6c9a317"
          ],
          "data": "0x000000000000000000000000000000000000000000000010054ddc28fe418aa9",
          "blockHash": "0x357dc192f2e63c3bc432b228320adf15dea7f5a04c3cbf29c9938d89ef044cd9",
          "blockNumber": "0xe56a90c",
          "blockTimestamp": "0x698732a2",
          "transactionHash": "0xfd44c00cf00449d330021bd3f78810525d7ebdbbc3e4cb989bda05b734b017ba",
          "transactionIndex": "0x2",
          "logIndex": "0x3",
          "removed": false
        },
        {
          "address": "0xfbd51f6d6005f767af48bd6d52efd53fa419afb1",
          "topics": [
            "0xddf252ad1be2c89b69c2b068fc378daa952ba7f163c4a11628f55a4df523b3ef",
            "0x000000000000000000000000ffd9e66c997391b01e5ca3f36e13ab3e786a8c42",
            "0x000000000000000000000000fb3e0c6f74eb1a21cc1da29aec80d2dfe6c9a317"
          ],
          "data": "0x000000000000000000000000000000000000000000000010054ddc28fe418aa9",
          "blockHash": "0x357dc192f2e63c3bc432b228320adf15dea7f5a04c3cbf29c9938d89ef044cd9",
          "blockNumber": "0xe56a90c",
          "blockTimestamp": "0x698732a2",
          "transactionHash": "0xfd44c00cf00449d330021bd3f78810525d7ebdbbc3e4cb989bda05b734b017ba",
          "transactionIndex": "0x2",
          "logIndex": "0x4",
          "removed": false
        }
      ],
      "logsBloom": "0x00000040400000000000000000000008000000000020000000000000000000000000000000000000000000000000000000000000000000000000000000000040000000000000000000000018000000000000000008000002000000000000000000000000000400000000000000000000000000000000000000000010000000000014000001000000000000000000000000000000000000002000400000000000000004000000000000000008000000000000000000000000000080000000000000000002000000000000000000000000000000000000000000000040000000000000000000000000010000000000000004000000000000200000010000800004",
      "type": "0x2",
      "transactionHash": "0xfd44c00cf00449d330021bd3f78810525d7ebdbbc3e4cb989bda05b734b017ba",
      "transactionIndex": "0x2",
      "blockHash": "0x357dc192f2e63c3bc432b228320adf15dea7f5a04c3cbf29c9938d89ef044cd9",
      "blockNumber": "0xe56a90c",
      "gasUsed": "0x268af",
      "effectiveGasPrice": "0x13134d0",
      "from": "0xffd9e66c997391b01e5ca3f36e13ab3e786a8c42",
      "to": "0x9a8ca723f5dccb7926d00b71dec55c2fea1f50f7",
      "contractAddress": null,
      "gasUsedForL1": "0x1e43",
      "l1BlockNumber": "0x9bcce3",
      "timeboosted": false
    }
  ],
  "libraries": [],
  "pending": [],
  "returns": {},
  "timestamp": 1770468005011,
  "chain": 421614,
  "commit": null
}