{
  "transactions": [
    {
      "hash": "0xb0cff6f86a8eebc95acfc0053f6a4d3aa89968f6ea48689f8770923600fea4c6",
      "transactionType": "CALL",
      "contractName": null,
      "contractAddress": "0xcc777c07d5eccffeb8c02e62805bd120ce4c7c6e",
      "function": "approve(address,uint256)",
      "arguments": [
        "0x9A8ca723F5dcCb7926D00B71deC55c2fEa1F50f7",
        "115792089237316195423570985008687907853269984665640564039457584007913129639935"
      ],
      "transaction": {
        "from": "0xffd9e66c997391b01e5ca3f36e13ab3e786a8c42",
        "to": "0xcc777c07d5eccffeb8c02e62805bd120ce4c7c6e",
        "gas": "0xaa7e",
        "value": "0x0",
        "input": "0x095ea7b30000000000000000000000009a8ca723f5dccb7926d00b71dec55c2fea1f50f7ffffffffffffffffffffffffffffffffffffffffffffffffffffffffffffffff",
        "nonce": "0x155",
        "chainId": "0x66eee"
      },
      "additionalContracts": [],
      "isFixedGasLimit": false
    },
    {
      "hash": "0xef84e3c21469ac44dfb43a5e3fa9d0c3e1ec03c036114310a4afa302005745ea",
      "transactionType": "CALL",
      "contractName": null,
      "contractAddress": "0xfbd51f6d6005f767af48bd6d52efd53fa419afb1",
      "function": "approve(address,uint256)",
      "arguments": [
        "0x9A8ca723F5dcCb7926D00B71deC55c2fEa1F50f7",
        "115792089237316195423570985008687907853269984665640564039457584007913129639935"
      ],
      "transaction": {
        "from": "0xffd9e66c997391b01e5ca3f36e13ab3e786a8c42",
        "to": "0xfbd51f6d6005f767af48bd6d52efd53fa419afb1",
        "gas": "0xaa7e",
        "value": "0x0",
        "input": "0x095ea7b30000000000000000000000009a8ca723f5dccb7926d00b71dec55c2fea1f50f7ffffffffffffffffffffffffffffffffffffffffffffffffffffffffffffffff",
        "nonce": "0x156",
        "chainId": "0x66eee"
      },
      "additionalContracts": [],
      "isFixedGasLimit": false
    },
    {
      "hash": "0xc64b315181b300a0eef15ab044dba3d08949c83461f0b6b601dd73885c1730e7",
      "transactionType": "CALL",
      "contractName": null,
      "contractAddress": "0x9a8ca723f5dccb7926d00b71dec55c2fea1f50f7",
      "function": "modifyLiquidity((address,address,uint24,int24,address),(int24,int24,int256,bytes32),bytes)",
      "arguments": [
        "(0xCc777c07d5ecCfFEB8C02E62805bd120CE4C7c6E, 0xFbd51f6D6005f767AF48Bd6D52eFD53Fa419aFB1, 3000, 60, 0xF2BE644D71936bD8544f3599edd8083De6831500)",
        "(-600, 600, 10000000000000000000000, 0x0000000000000000000000000000000000000000000000000000000000000000)",
        "0x"
      ],
      "transaction": {
        "from": "0xffd9e66c997391b01e5ca3f36e13ab3e786a8c42",
        "to": "0x9a8ca723f5dccb7926d00b71dec55c2fea1f50f7",
        "gas": "0x59be7",
        "value": "0x0",
        "input": "0x5a6bcfda000000000000000000000000cc777c07d5eccffeb8c02e62805bd120ce4c7c6e000000000000000000000000fbd51f6d6005f767af48bd6d52efd53fa419afb10000000000000000000000000000000000000000000000000000000000000bb8000000000000000000000000000000000000000000000000000000000000003c000000000000000000000000f2be644d71936bd8544f3599edd8083de6831500fffffffffffffffffffffffffffffffffffffffffffffffffffffffffffffda8000000000000000000000000000000000000000000000000000000000000025800000000000000000000000000000000000000000000021e19e0c9bab2400000000000000000000000000000000000000000000000000000000000000000000000000000000000000000000000000000000000000000000000000000000001400000000000000000000000000000000000000000000000000000000000000000",
        "nonce": "0x157",
        "chainId": "0x66eee"
      },
      "additionalContracts": [],
      "isFixedGasLimit": false
    }
  ],
  "receipts": [
    {
      "status": "0x1",
      "cumulativeGasUsed": "0x7c7d",
      "logs": [
        {
          "address": "0xcc777c07d5eccffeb8c02e62805bd120ce4c7c6e",
          "topics": [
            "0x8c5be1e5ebec7d5bd14f71427d1e84f3dd0314c0f7b2291e5b200ac8c7c3b925",
            "0x000000000000000000000000ffd9e66c997391b01e5ca3f36e13ab3e786a8c42",
            "0x0000000000000000000000009a8ca723f5dccb7926d00b71dec55c2fea1f50f7"
          ],
          "data": "0xffffffffffffffffffffffffffffffffffffffffffffffffffffffffffffffff",
          "blockHash": "0xd0acef41b693319ba7ff9fa53cc5609145f9c7a963cd74359d0af621e46c37e2",
          "blockNumber": "0xe56d6a1",
          "blockTimestamp": "0x69873f3a",
          "transactionHash": "0xb0cff6f86a8eebc95acfc0053f6a4d3aa89968f6ea48689f8770923600fea4c6",
          "transactionIndex": "0x1",
          "logIndex": "0x0",
          "removed": false
        }
      ],
      "logsBloom": "0x00000000400000000000000000000000000000000000000000000000000000000000000000000000000000000000000000000000000000000000000000200000000000000000000000000010000000000000000000000002000000000000000000000000000000000000000000000000000000000000000000000000000000000010000000000000000000000000000000000000000000000000400000000000020000000000000000000008000000000000000000000000000080000000000000000000000000000000000000000000000000000000000000000000000000000010000000000000000000000000000000000000000000000000010000800000",
      "type": "0x2",
      "transactionHash": "0xb0cff6f86a8eebc95acfc0053f6a4d3aa89968f6ea48689f8770923600fea4c6",
      "transactionIndex": "0x1",
      "blockHash": "0xd0acef41b693319ba7ff9fa53cc5609145f9c7a963cd74359d0af621e46c37e2",
      "blockNumber": "0xe56d6a1",
      "gasUsed": "0x7c7d",
      "effectiveGasPrice": "0x1312d00",
      "from": "0xffd9e66c997391b01e5ca3f36e13ab3e786a8c42",
      "to": "0xcc777c07d5eccffeb8c02e62805bd120ce4c7c6e",
      "contractAddress": null,
      "gasUsedForL1": "0x1590",
      "l1BlockNumber": "0x9bcde9",
      "timeboosted": false
    },
    {
      "status": "0x1",
      "cumulativeGasUsed": "0x7c6e",
      "logs": [
        {
          "address": "0xfbd51f6d6005f767af48bd6d52efd53fa419afb1",
          "topics": [
            "0x8c5be1e5ebec7d5bd14f71427d1e84f3dd0314c0f7b2291e5b200ac8c7c3b925",
            "0x000000000000000000000000ffd9e66c997391b01e5ca3f36e13ab3e786a8c42",
            "0x0000000000000000000000009a8ca723f5dccb7926d00b71dec55c2fea1f50f7"
          ],
          "data": "0xffffffffffffffffffffffffffffffffffffffffffffffffffffffffffffffff",
          "blockHash": "0x9db1de5d09e526a2004ff4537c65ac77779198610910cdec12d69adf6bdf6a8e",
          "blockNumber": "0xe56d6ae",
          "blockTimestamp": "0x69873f3e",
          "transactionHash": "0xef84e3c21469ac44dfb43a5e3fa9d0c3e1ec03c036114310a4afa302005745ea",
          "transactionIndex": "0x1",
          "logIndex": "0x0",
          "removed": false
        }
      ],
      "logsBloom": "0x00000000400000000000000000000000000000000000000000000000000000000000000000000000000000000000000000000000000000000000000000200000000000000000000000000000000000000000000008000000000000000000000000000000000000000000000000000000000000000000000000000000000000000014000000000000000000000000000000000000000000002000400000000000020000000000000000000008000000000000000000000000000000000000000000000000000000000000000000000000000000000000000000000000000000000010000000000000000000000000000000000000000000000000010000800000",
      "type": "0x2",
      "transactionHash": "0xef84e3c21469ac44dfb43a5e3fa9d0c3e1ec03c036114310a4afa302005745ea",
      "transactionIndex": "0x1",
      "blockHash": "0x9db1de5d09e526a2004ff4537c65ac77779198610910cdec12d69adf6bdf6a8e",
      "blockNumber": "0xe56d6ae",
      "gasUsed": "0x7c6e",
      "effectiveGasPrice": "0x13207c0",
      "from": "0xffd9e66c997391b01e5ca3f36e13ab3e786a8c42",
      "to": "0xfbd51f6d6005f767af48bd6d52efd53fa419afb1",
      "contractAddress": null,
      "gasUsedForL1": "0x1581",
      "l1BlockNumber": "0x9bcde9",
      "timeboosted": false
    },
    {
      "status": "0x1",
      "cumulativeGasUsed": "0x42fdf",
      "logs": [
        {
          "address": "0xfb3e0c6f74eb1a21cc1da29aec80d2dfe6c9a317",
          "topics": [
            "0xf208f4912782fd25c7f114ca3723a2d5dd6f3bcc3ac8db5af63baa85f711d5ec",
            "0x5a7b67fabdb4bb2d3b48b23fc1eb5793a24cb5cf163350c2e777de155161e7eb",
            "0x0000000000000000000000009a8ca723f5dccb7926d00b71dec55c2fea1f50f7"
          ],
          "data": "0xfffffffffffffffffffffffffffffffffffffffffffffffffffffffffffffda8000000000000000000000000000000000000000000000000000000000000025800000000000000000000000000000000000000000000021e19e0c9bab24000000000000000000000000000000000000000000000000000000000000000000000",
          "blockHash": "0x1b19612977b79ac56bf119eed8d95326fa19c15216f762db0ae15a345ead7841",
          "blockNumber": "0xe56d6ba",
          "blockTimestamp": "0x69873f41",
          "transactionHash": "0xc64b315181b300a0eef15ab044dba3d08949c83461f0b6b601dd73885c1730e7",
          "transactionIndex": "0x1",
          "logIndex": "0x0",
          "removed": false
        },
        {
          "address": "0xcc777c07d5eccffeb8c02e62805bd120ce4c7c6e",
          "topics": [
            "0xddf252ad1be2c89b69c2b068fc378daa952ba7f163c4a11628f55a4df523b3ef",
            "0x000000000000000000000000ffd9e66c997391b01e5ca3f36e13ab3e786a8c42",
            "0x000000000000000000000000fb3e0c6f74eb1a21cc1da29aec80d2dfe6c9a317"
          ],
          "data": "0x000000000000000000000000000000000000000000000010054ddc28fe418aa9",
          "blockHash": "0x1b19612977b79ac56bf119eed8d95326fa19c15216f762db0ae15a345ead7841",
          "blockNumber": "0xe56d6ba",
          "blockTimestamp": "0x69873f41",
          "transactionHash": "0xc64b315181b300a0eef15ab044dba3d08949c83461f0b6b601dd73885c1730e7",
          "transactionIndex": "0x1",
          "logIndex": "0x1",
          "removed": false
        },
        {
          "address": "0xfbd51f6d6005f767af48bd6d52efd53fa419afb1",
          "topics": [
            "0xddf252ad1be2c89b69c2b068fc378daa952ba7f163c4a11628f55a4df523b3ef",
            "0x000000000000000000000000ffd9e66c997391b01e5ca3f36e13ab3e786a8c42",
            "0x000000000000000000000000fb3e0c6f74eb1a21cc1da29aec80d2dfe6c9a317"
          ],
          "data": "0x000000000000000000000000000000000000000000000010054ddc28fe418aa9",
          "blockHash": "0x1b19612977b79ac56bf119eed8d95326fa19c15216f762db0ae15a345ead7841",
          "blockNumber": "0xe56d6ba",
          "blockTimestamp": "0x69873f41",
          "transactionHash": "0xc64b315181b300a0eef15ab044dba3d08949c83461f0b6b601dd73885c1730e7",
          "transactionIndex": "0x1",
          "logIndex": "0x2",
          "removed": false
        }
      ],
      "logsBloom": "0x00000040400000000000000000000008000000000020000000000000000000000000000000000000000000000000000000000000100000000000000000000040000000000000000000000018000000000000000008000002000000000000000000000000000400000000000000000000000000000000000000000010000000000014000801000000000000000000000000000000000000002000400000000000000004000080000000000008000000000000000000000000000080000000000000000002000000000000000000000000000000000000000000000000000000000000000000000000000000000000000004000000000000000000010000800004",
      "type": "0x2",
      "transactionHash": "0xc64b315181b300a0eef15ab044dba3d08949c83461f0b6b601dd73885c1730e7",
      "transactionIndex": "0x1",
      "blockHash": "0x1b19612977b79ac56bf119eed8d95326fa19c15216f762db0ae15a345ead7841",
      "blockNumber": "0xe56d6ba",
      "gasUsed": "0x42fdf",
      "effectiveGasPrice": "0x1314470",
      "from": "0xffd9e66c997391b01e5ca3f36e13ab3e786a8c42",
      "to": "0x9a8ca723f5dccb7926d00b71dec55c2fea1f50f7",
      "contractAddress": null,
      "gasUsedForL1": "0x282b",
      "l1BlockNumber": "0x9bcde9",
      "timeboosted": false
    }
  ],
  "libraries": [],
  "pending": [],
  "returns": {},
  "timestamp": 1770471235450,
  "chain": 421614,
  "commit": null
}