{
  "transactions": [
    {
      "hash": "0xaee48fc9c3304653515eb04f2211356df1e5a81fa3eace58fcd3f67a3c93e868",
      "transactionType": "CALL",
      "contractName": null,
      "contractAddress": "0xcc777c07d5eccffeb8c02e62805bd120ce4c7c6e",
      "function": "approve(address,uint256)",
      "arguments": [
        "0x9A8ca723F5dcCb7926D00B71deC55c2fEa1F50f7",
        "115792089237316195423570985008687907853269984665640564039457584007913129639935"
      ],
      "transaction": {
        "from": "0xffd9e66c997391b01e5ca3f36e13ab3e786a8c42",
        "to": "0xcc777c07d5eccffeb8c02e62805bd120ce4c7c6e",
        "gas": "0x10d99",
        "value": "0x0",
        "input": "0x095ea7b30000000000000000000000009a8ca723f5dccb7926d00b71dec55c2fea1f50f7ffffffffffffffffffffffffffffffffffffffffffffffffffffffffffffffff",
        "nonce": "0x11d",
        "chainId": "0x66eee"
      },
      "additionalContracts": [],
      "isFixedGasLimit": false
    },
    {
      "hash": "0x813b35232c0c46687f759d6b32527909cd4f0042dcf1c9cf7149707ed80f3770",
      "transactionType": "CALL",
      "contractName": null,
      "contractAddress": "0xfbd51f6d6005f767af48bd6d52efd53fa419afb1",
      "function": "approve(address,uint256)",
      "arguments": [
        "0x9A8ca723F5dcCb7926D00B71deC55c2fEa1F50f7",
        "115792089237316195423570985008687907853269984665640564039457584007913129639935"
      ],
      "transaction": {
        "from": "0xffd9e66c997391b01e5ca3f36e13ab3e786a8c42",
        "to": "0xfbd51f6d6005f767af48bd6d52efd53fa419afb1",
        "gas": "0x10d99",
        "value": "0x0",
        "input": "0x095ea7b30000000000000000000000009a8ca723f5dccb7926d00b71dec55c2fea1f50f7ffffffffffffffffffffffffffffffffffffffffffffffffffffffffffffffff",
        "nonce": "0x11e",
        "chainId": "0x66eee"
      },
      "additionalContracts": [],
      "isFixedGasLimit": false
    },
    {
      "hash": "0x93dcb0bdab210330dca38b60d386f04236eb5d984ee1af091d3dcdc1a1ca4fa7",
      "transactionType": "CALL",
      "contractName": null,
      "contractAddress": "0x9a8ca723f5dccb7926d00b71dec55c2fea1f50f7",
      "function": "modifyLiquidity((address,address,uint24,int24,address),(int24,int24,int256,bytes32),bytes)",
      "arguments": [
        "(0xCc777c07d5ecCfFEB8C02E62805bd120CE4C7c6E, 0xFbd51f6D6005f767AF48Bd6D52eFD53Fa419aFB1, 3000, 60, 0x50c146181a8aeb4F61c76c4031e5490A403B77dd)",
        "(-600, 600, 10000000000000000000000, 0x0000000000000000000000000000000000000000000000000000000000000000)",
        "0x"
      ],
      "transaction": {
        "from": "0xffd9e66c997391b01e5ca3f36e13ab3e786a8c42",
        "to": "0x9a8ca723f5dccb7926d00b71dec55c2fea1f50f7",
        "gas": "0x5911a",
        "value": "0x0",
        "input": "0x5a6bcfda000000000000000000000000cc777c07d5eccffeb8c02e62805bd120ce4c7c6e000000000000000000000000fbd51f6d6005f767af48bd6d52efd53fa419afb10000000000000000000000000000000000000000000000000000000000000bb8000000000000000000000000000000000000000000000000000000000000003c00000000000000000000000050c146181a8aeb4f61c76c4031e5490a403b77ddfffffffffffffffffffffffffffffffffffffffffffffffffffffffffffffda8000000000000000000000000000000000000000000000000000000000000025800000000000000000000000000000000000000000000021e19e0c9bab2400000000000000000000000000000000000000000000000000000000000000000000000000000000000000000000000000000000000000000000000000000000001400000000000000000000000000000000000000000000000000000000000000000",
        "nonce": "0x11f",
        "chainId": "0x66eee"
      },
      "additionalContracts": [],
      "isFixedGasLimit": false
    }
  ],
  "receipts": [
    {
      "status": "0x1",
      "cumulativeGasUsed": "0x27db7",
      "logs": [
        {
          "address": "0xcc777c07d5eccffeb8c02e62805bd120ce4c7c6e",
          "topics": [
            "0x8c5be1e5ebec7d5bd14f71427d1e84f3dd0314c0f7b2291e5b200ac8c7c3b925",
            "0x000000000000000000000000ffd9e66c997391b01e5ca3f36e13ab3e786a8c42",
            "0x0000000000000000000000009a8ca723f5dccb7926d00b71dec55c2fea1f50f7"
          ],
          "data": "0xffffffffffffffffffffffffffffffffffffffffffffffffffffffffffffffff",
          "blockHash": "0x51c61ab782d6e55bebfc1d95da6a7009c2559693fb574d8884b3ddb6b1425ee6",
          "blockNumber": "0xe567e2b",
          "blockTimestamp": "0x69872703",
          "transactionHash": "0xaee48fc9c3304653515eb04f2211356df1e5a81fa3eace58fcd3f67a3c93e868",
          "transactionIndex": "0x2",
          "logIndex": "0x3",
          "removed": false
        }
      ],
      "logsBloom": "0x00000000400000000000000000000000000000000000000000000000000000000000000000000000000000000000000000000000000000000000000000200000000000000000000000000010000000000000000000000002000000000000000000000000000000000000000000000000000000000000000000000000000000000010000000000000000000000000000000000000000000000000400000000000020000000000000000000008000000000000000000000000000080000000000000000000000000000000000000000000000000000000000000000000000000000010000000000000000000000000000000000000000000000000010000800000",
      "type": "0x2",
      "transactionHash": "0xaee48fc9c3304653515eb04f2211356df1e5a81fa3eace58fcd3f67a3c93e868",
      "transactionIndex": "0x2",
      "blockHash": "0x51c61ab782d6e55bebfc1d95da6a7009c2559693fb574d8884b3ddb6b1425ee6",
      "blockNumber": "0xe567e2b",
      "gasUsed": "0xc789",
      "effectiveGasPrice": "0x134d680",
      "from": "0xffd9e66c997391b01e5ca3f36e13ab3e786a8c42",
      "to": "0xcc777c07d5eccffeb8c02e62805bd120ce4c7c6e",
      "contractAddress": null,
      "gasUsedForL1": "0x12e0",
      "l1BlockNumber": "0x9bcbf2",
      "timeboosted": false
    },
    {
      "status": "0x1",
      "cumulativeGasUsed": "0x50b416",
      "logs": [
        {
          "address": "0xfbd51f6d6005f767af48bd6d52efd53fa419afb1",
          "topics": [
            "0x8c5be1e5ebec7d5bd14f71427d1e84f3dd0314c0f7b2291e5b200ac8c7c3b925",
            "0x000000000000000000000000ffd9e66c997391b01e5ca3f36e13ab3e786a8c42",
            "0x0000000000000000000000009a8ca723f5dccb7926d00b71dec55c2fea1f50f7"
          ],
          "data": "0xffffffffffffffffffffffffffffffffffffffffffffffffffffffffffffffff",
          "blockHash": "0x9aa6decdff19cf29e3db9a21abae4123dcc9ab1005f15ba0ef27ef88675dcab7",
          "blockNumber": "0xe567e38",
          "blockTimestamp": "0x69872706",
          "transactionHash": "0x813b35232c0c46687f759d6b32527909cd4f0042dcf1c9cf7149707ed80f3770",
          "transactionIndex": "0x4",
          "logIndex": "0x6b",
          "removed": false
        }
      ],
      "logsBloom": "0x00000000400000000000000000000000000000000000000000000000000000000000000000000000000000000000000000000000000000000000000000200000000000000000000000000000000000000000000008000000000000000000000000000000000000000000000000000000000000000000000000000000000000000014000000000000000000000000000000000000000000002000400000000000020000000000000000000008000000000000000000000000000000000000000000000000000000000000000000000000000000000000000000000000000000000010000000000000000000000000000000000000000000000000010000800000",
      "type": "0x2",
      "transactionHash": "0x813b35232c0c46687f759d6b32527909cd4f0042dcf1c9cf7149707ed80f3770",
      "transactionIndex": "0x4",
      "blockHash": "0x9aa6decdff19cf29e3db9a21abae4123dcc9ab1005f15ba0ef27ef88675dcab7",
      "blockNumber": "0xe567e38",
      "gasUsed": "0xc788",
      "effectiveGasPrice": "0x134e620",
      "from": "0xffd9e66c997391b01e5ca3f36e13ab3e786a8c42",
      "to": "0xfbd51f6d6005f767af48bd6d52efd53fa419afb1",
      "contractAddress": null,
      "gasUsedForL1": "0x12df",
      "l1BlockNumber": "0x9bcbf2",
      "timeboosted": false
    },
    {
      "status": "0x1",
      "cumulativeGasUsed": "0x42aa0",
      "logs": [
        {
          "address": "0xfb3e0c6f74eb1a21cc1da29aec80d2dfe6c9a317",
          "topics": [
            "0xf208f4912782fd25c7f114ca3723a2d5dd6f3bcc3ac8db5af63baa85f711d5ec",
            "0xb1caa7c537be73a31f7b1573994c042a00ac59ec0f3736d8d2a8031fda686cf0",
            "0x0000000000000000000000009a8ca723f5dccb7926d00b71dec55c2fea1f50f7"
          ],
          "data": "0xfffffffffffffffffffffffffffffffffffffffffffffffffffffffffffffda8000000000000000000000000000000000000000000000000000000000000025800000000000000000000000000000000000000000000021e19e0c9bab24000000000000000000000000000000000000000000000000000000000000000000000",
          "blockHash": "0x3fe023f9e4d7b8a7f22362976d346d7b2a329767223410476516f6ee4cf54123",
          "blockNumber": "0xe567e46",
          "blockTimestamp": "0x6987270a",
          "transactionHash": "0x93dcb0bdab210330dca38b60d386f04236eb5d984ee1af091d3dcdc1a1ca4fa7",
          "transactionIndex": "0x1",
          "logIndex": "0x0",
          "removed": false
        },
        {
          "address": "0xcc777c07d5eccffeb8c02e62805bd120ce4c7c6e",
          "topics": [
            "0xddf252ad1be2c89b69c2b068fc378daa952ba7f163c4a11628f55a4df523b3ef",
            "0x000000000000000000000000ffd9e66c997391b01e5ca3f36e13ab3e786a8c42",
            "0x000000000000000000000000fb3e0c6f74eb1a21cc1da29aec80d2dfe6c9a317"
          ],
          "data": "0x000000000000000000000000000000000000000000000010054ddc28fe418aa9",
          "blockHash": "0x3fe023f9e4d7b8a7f22362976d346d7b2a329767223410476516f6ee4cf54123",
          "blockNumber": "0xe567e46",
          "blockTimestamp": "0x6987270a",
          "transactionHash": "0x93dcb0bdab210330dca38b60d386f04236eb5d984ee1af091d3dcdc1a1ca4fa7",
          "transactionIndex": "0x1",
          "logIndex": "0x1",
          "removed": false
        },
        {
          "address": "0xfbd51f6d6005f767af48bd6d52efd53fa419afb1",
          "topics": [
            "0xddf252ad1be2c89b69c2b068fc378daa952ba7f163c4a11628f55a4df523b3ef",
            "0x000000000000000000000000ffd9e66c997391b01e5ca3f36e13ab3e786a8c42",
            "0x000000000000000000000000fb3e0c6f74eb1a21cc1da29aec80d2dfe6c9a317"
          ],
          "data": "0x000000000000000000000000000000000000000000000010054ddc28fe418aa9",
          "blockHash": "0x3fe023f9e4d7b8a7f22362976d346d7b2a329767223410476516f6ee4cf54123",
          "blockNumber": "0xe567e46",
          "blockTimestamp": "0x6987270a",
          "transactionHash": "0x93dcb0bdab210330dca38b60d386f04236eb5d984ee1af091d3dcdc1a1ca4fa7",
          "transactionIndex": "0x1",
          "logIndex": "0x2",
          "removed": false
        }
      ],
      "logsBloom": "0x00000040400400000000000000000008000000000020000000000800000000000000000000000000000000000000000000000000000000000000000000000040000000000000000000000018000000000000000008000002000000000000000000000000000400000000000000000200000000000000000000000010000000000014000001000000000000000000000000000000000000002000400000000000000004000000000000000008000000000000000000000000000080000000000000000002000000000000000000000000000000000000000000000000000000000000000000000000000000000000000004000000000000000000010000800004",
      "type": "0x2",
      "transactionHash": "0x93dcb0bdab210330dca38b60d386f04236eb5d984ee1af091d3dcdc1a1ca4fa7",
      "transactionIndex": "0x1",
      "blockHash": "0x3fe023f9e4d7b8a7f22362976d346d7b2a329767223410476516f6ee4cf54123",
      "blockNumber": "0xe567e46",
      "gasUsed": "0x42aa0",
      "effectiveGasPrice": "0x13134d0",
      "from": "0xffd9e66c997391b01e5ca3f36e13ab3e786a8c42",
      "to": "0x9a8ca723f5dccb7926d00b71dec55c2fea1f50f7",
      "contractAddress": null,
      "gasUsedForL1": "0x22e0",
      "l1BlockNumber": "0x9bcbf2",
      "timeboosted": false
    }
  ],
  "libraries": [],
  "pending": [],
  "returns": {},
  "timestamp": 1770465036877,
  "chain": 421614,
  "commit": null
}