{
  "transactions": [
    {
      "hash": "0x1e7886bc89a567479f865af5dc4fa2c4367e9854897792006bda6a06a5aec0a4",
      "transactionType": "CALL",
      "contractName": null,
      "contractAddress": "0xfb3e0c6f74eb1a21cc1da29aec80d2dfe6c9a317",
      "function": "initialize((address,address,uint24,int24,address),uint160)",
      "arguments": [
        "(0xCc777c07d5ecCfFEB8C02E62805bd120CE4C7c6E, 0xFbd51f6D6005f767AF48Bd6D52eFD53Fa419aFB1, 3000, 60, 0x42752F8714EC5D3E2f6462aB84074067b25B5500)",
        "79228162514264337593543950336"
      ],
      "transaction": {
        "from": "0xffd9e66c997391b01e5ca3f36e13ab3e786a8c42",
        "to": "0xfb3e0c6f74eb1a21cc1da29aec80d2dfe6c9a317",
        "gas": "0x30f05",
        "value": "0x0",
        "input": "0x6276cbbe000000000000000000000000cc777c07d5eccffeb8c02e62805bd120ce4c7c6e000000000000000000000000fbd51f6d6005f767af48bd6d52efd53fa419afb10000000000000000000000000000000000000000000000000000000000000bb8000000000000000000000000000000000000000000000000000000000000003c00000000000000000000000042752f8714ec5d3e2f6462ab84074067b25b55000000000000000000000000000000000000000001000000000000000000000000",
        "nonce": "0x131",
        "chainId": "0x66eee"
      },
      "additionalContracts": [],
      "isFixedGasLimit": false
    }
  ],
  "receipts": [
    {
      "status": "0x1",
      "cumulativeGasUsed": "0xb781c",
      "logs": [
        {
          "address": "0xfb3e0c6f74eb1a21cc1da29aec80d2dfe6c9a317",
          "topics": [
            "0xdd466e674ea557f56295e2d0218a125ea4b4f0f6f3307b95f85e6110838d6438",
            "0xb18d5a6c6616d64282410e46d6647de679ebca93d721f4fdf86e8f3c2b9f5d4b",
            "0x000000000000000000000000cc777c07d5eccffeb8c02e62805bd120ce4c7c6e",
            "0x000000000000000000000000fbd51f6d6005f767af48bd6d52efd53fa419afb1"
          ],
          "data": "0x0000000000000000000000000000000000000000000000000000000000000bb8000000000000000000000000000000000000000000000000000000000000003c00000000000000000000000042752f8714ec5d3e2f6462ab84074067b25b550000000000000000000000000000000000000000010000000000000000000000000000000000000000000000000000000000000000000000000000000000000000",
          "blockHash": "0x5b73dd2d866af185ab58a6bb92fb09ed314810adb1e61ff39450eecc55c0a08e",
          "blockNumber": "0xe56a664",
          "blockTimestamp": "0x698731ec",
          "transactionHash": "0x1e7886bc89a567479f865af5dc4fa2c4367e9854897792006bda6a06a5aec0a4",
          "transactionIndex": "0x3",
          "logIndex": "0x6",
          "removed": false
        }
      ],
      "logsBloom": "0x00000000000000000000000000000000000000000004000000000001000000000000000000000000000000000000000000000000000000000000000000000040000000000000000000000000000000000000000000000000000000000000000000000000000400000000000000000000000000000000000000000000000000000000000000000008000000000000000000000001000000000000000000204000000000000000000000000000000000000000000000000200000000000000000000000000000000000000000000000000000000000000000000000040000020000000000000000000010000000000000100000000000000200000000000000004",
      "type": "0x2",
      "transactionHash": "0x1e7886bc89a567479f865af5dc4fa2c4367e9854897792006bda6a06a5aec0a4",
      "transactionIndex": "0x3",
      "blockHash": "0x5b73dd2d866af185ab58a6bb92fb09ed314810adb1e61ff39450eecc55c0a08e",
      "blockNumber": "0xe56a664",
      "gasUsed": "0x2505a",
      "effectiveGasPrice": "0x1312d00",
      "from": "0xffd9e66c997391b01e5ca3f36e13ab3e786a8c42",
      "to": "0xfb3e0c6f74eb1a21cc1da29aec80d2dfe6c9a317",
      "contractAddress": null,
      "gasUsedForL1": "0x1b31",
      "l1BlockNumber": "0x9bccd5",
      "timeboosted": false
    }
  ],
  "libraries": [],
  "pending": [],
  "returns": {},
  "timestamp": 1770467822727,
  "chain": 421614,
  "commit": null
}