{
  "transactions": [
    {
      "hash": "0xa209349b92550342d2bd7cbce6153b81af93b7a132ba2e63e3f3719c51d2b63f",
      "transactionType": "CALL",
      "contractName": null,
      "contractAddress": "0xfb3e0c6f74eb1a21cc1da29aec80d2dfe6c9a317",
      "function": "initialize((address,address,uint24,int24,address),uint160)",
      "arguments": [
        "(0xCc777c07d5ecCfFEB8C02E62805bd120CE4C7c6E, 0xFbd51f6D6005f767AF48Bd6D52eFD53Fa419aFB1, 3000, 60, 0x50c146181a8aeb4F61c76c4031e5490A403B77dd)",
        "79228162514264337593543950336"
      ],
      "transaction": {
        "from": "0xffd9e66c997391b01e5ca3f36e13ab3e786a8c42",
        "to": "0xfb3e0c6f74eb1a21cc1da29aec80d2dfe6c9a317",
        "gas": "0x315af",
        "value": "0x0",
        "input": "0x6276cbbe000000000000000000000000cc777c07d5eccffeb8c02e62805bd120ce4c7c6e000000000000000000000000fbd51f6d6005f767af48bd6d52efd53fa419afb10000000000000000000000000000000000000000000000000000000000000bb8000000000000000000000000000000000000000000000000000000000000003c00000000000000000000000050c146181a8aeb4f61c76c4031e5490a403b77dd0000000000000000000000000000000000000001000000000000000000000000",
        "nonce": "0x11c",
        "chainId": "0x66eee"
      },
      "additionalContracts": [],
      "isFixedGasLimit": false
    }
  ],
  "receipts": [
    {
      "status": "0x1",
      "cumulativeGasUsed": "0x25515",
      "logs": [
        {
          "address": "0xfb3e0c6f74eb1a21cc1da29aec80d2dfe6c9a317",
          "topics": [
            "0xdd466e674ea557f56295e2d0218a125ea4b4f0f6f3307b95f85e6110838d6438",
            "0xb1caa7c537be73a31f7b1573994c042a00ac59ec0f3736d8d2a8031fda686cf0",
            "0x000000000000000000000000cc777c07d5eccffeb8c02e62805bd120ce4c7c6e",
            "0x000000000000000000000000fbd51f6d6005f767af48bd6d52efd53fa419afb1"
          ],
          "data": "0x0000000000000000000000000000000000000000000000000000000000000bb8000000000000000000000000000000000000000000000000000000000000003c00000000000000000000000050c146181a8aeb4f61c76c4031e5490a403b77dd00000000000000000000000000000000000000010000000000000000000000000000000000000000000000000000000000000000000000000000000000000000",
          "blockHash": "0x05b429d4af9b65356b282d614fd8b42b43bde957c264aa1b8e7a5072e36cf637",
          "blockNumber": "0xe567373",
          "blockTimestamp": "0x6987241e",
          "transactionHash": "0xa209349b92550342d2bd7cbce6153b81af93b7a132ba2e63e3f3719c51d2b63f",
          "transactionIndex": "0x1",
          "logIndex": "0x0",
          "removed": false
        }
      ],
      "logsBloom": "0x00000000000400000000000000000000000000000004000000000801000000000000000000000000000000000000000000000000000000000000000000000040000000000000000000000000000000000000000000000000000000000000000000000000000400000000000000000200000000000000000000000000000000000000000000000008000000000000000000000001000000000000000000204000000000000000000000000000000000000000000000000200000000000000000000000000000000000000000000000000000000000000000000000000000020000000000000000000000000000000000100000000000000000000000000000004",
      "type": "0x2",
      "transactionHash": "0xa209349b92550342d2bd7cbce6153b81af93b7a132ba2e63e3f3719c51d2b63f",
      "transactionIndex": "0x1",
      "blockHash": "0x05b429d4af9b65356b282d614fd8b42b43bde957c264aa1b8e7a5072e36cf637",
      "blockNumber": "0xe567373",
      "gasUsed": "0x25515",
      "effectiveGasPrice": "0x131aa00",
      "from": "0xffd9e66c997391b01e5ca3f36e13ab3e786a8c42",
      "to": "0xfb3e0c6f74eb1a21cc1da29aec80d2dfe6c9a317",
      "contractAddress": null,
      "gasUsedForL1": "0x18dd",
      "l1BlockNumber": "0x9bcbb5",
      "timeboosted": false
    }
  ],
  "libraries": [],
  "pending": [],
  "returns": {},
  "timestamp": 1770464289176,
  "chain": 421614,
  "commit": null
}