{
  "transactions": [
    {
      "hash": "0xcee8abbbae1b1a5d5cf46bb2db78a3034e167421c09752c97366d222cb7044a7",
      "transactionType": "CALL",
      "contractName": null,
      "contractAddress": "0xfb3e0c6f74eb1a21cc1da29aec80d2dfe6c9a317",
      "function": "initialize((address,address,uint24,int24,address),uint160)",
      "arguments": [
        "(0xCc777c07d5ecCfFEB8C02E62805bd120CE4C7c6E, 0xFbd51f6D6005f767AF48Bd6D52eFD53Fa419aFB1, 3000, 60, 0xF2BE644D71936bD8544f3599edd8083De6831500)",
        "79228162514264337593543950336"
      ],
      "transaction": {
        "from": "0xffd9e66c997391b01e5ca3f36e13ab3e786a8c42",
        "to": "0xfb3e0c6f74eb1a21cc1da29aec80d2dfe6c9a317",
        "gas": "0x31c72",
        "value": "0x0",
        "input": "0x6276cbbe000000000000000000000000cc777c07d5eccffeb8c02e62805bd120ce4c7c6e000000000000000000000000fbd51f6d6005f767af48bd6d52efd53fa419afb10000000000000000000000000000000000000000000000000000000000000bb8000000000000000000000000000000000000000000000000000000000000003c000000000000000000000000f2be644d71936bd8544f3599edd8083de68315000000000000000000000000000000000000000001000000000000000000000000",
        "nonce": "0x154",
        "chainId": "0x66eee"
      },
      "additionalContracts": [],
      "isFixedGasLimit": false
    }
  ],
  "receipts": [
    {
      "status": "0x1",
      "cumulativeGasUsed": "0x25891",
      "logs": [
        {
          "address": "0xfb3e0c6f74eb1a21cc1da29aec80d2dfe6c9a317",
          "topics": [
            "0xdd466e674ea557f56295e2d0218a125ea4b4f0f6f3307b95f85e6110838d6438",
            "0x5a7b67fabdb4bb2d3b48b23fc1eb5793a24cb5cf163350c2e777de155161e7eb",
            "0x000000000000000000000000cc777c07d5eccffeb8c02e62805bd120ce4c7c6e",
            "0x000000000000000000000000fbd51f6d6005f767af48bd6d52efd53fa419afb1"
          ],
          "data": "0x0000000000000000000000000000000000000000000000000000000000000bb8000000000000000000000000000000000000000000000000000000000000003c000000000000000000000000f2be644d71936bd8544f3599edd8083de683150000000000000000000000000000000000000000010000000000000000000000000000000000000000000000000000000000000000000000000000000000000000",
          "blockHash": "0xe54d770f84b261182d4615ed36cd39420aa9c0fb4168876b783b14d84f954ff9",
          "blockNumber": "0xe56d5dc",
          "blockTimestamp": "0x69873f08",
          "transactionHash": "0xcee8abbbae1b1a5d5cf46bb2db78a3034e167421c09752c97366d222cb7044a7",
          "transactionIndex": "0x1",
          "logIndex": "0x0",
          "removed": false
        }
      ],
      "logsBloom": "0x00000000000000000000000000000000000000000004000000000001000000000000000000000000000000000000000000000000100000000000000000000040000000000000000000000000000000000000000000000000000000000000000000000000000400000000000000000000000000000000000000000000000000000000000800000008000000000000000000000001000000000000000000204000000000000080000000000000000000000000000000000200000000000000000000000000000000000000000000000000000000000000000000000000000020000000000000000000000000000000000100000000000000000000000000000004",
      "type": "0x2",
      "transactionHash": "0xcee8abbbae1b1a5d5cf46bb2db78a3034e167421c09752c97366d222cb7044a7",
      "transactionIndex": "0x1",
      "blockHash": "0xe54d770f84b261182d4615ed36cd39420aa9c0fb4168876b783b14d84f954ff9",
      "blockNumber": "0xe56d5dc",
      "gasUsed": "0x25891",
      "effectiveGasPrice": "0x131b1d0",
      "from": "0xffd9e66c997391b01e5ca3f36e13ab3e786a8c42",
      "to": "0xfb3e0c6f74eb1a21cc1da29aec80d2dfe6c9a317",
      "contractAddress": null,
      "gasUsedForL1": "0x2368",
      "l1BlockNumber": "0x9bcde5",
      "timeboosted": false
    }
  ],
  "libraries": [],
  "pending": [],
  "returns": {},
  "timestamp": 1770471178696,
  "chain": 421614,
  "commit": null
}